:400000000080002011000000D10C0000D10C000010B500F07FFEC04670B512223A4B1A6001F0BAF8394801F0EBFB012001F0D4F8302000F0CBFF364A364B1A60364C802540
:40004000ED052560354A116802230B431360344A344B1A600022344B1A60344A136808218B431360FA20C00001F062F8304800F0A3FFBC2292012F4B1A602F4B2F49196037
:400080002F490A602F4A1A60FE2212022E490A602E4919602E490A602E4A1A60E82149012D4A11602D4A1A60882189012C4A11602C4A1A60822212062B4B1A608022D2023B
:4000C0002A4B1A6044232A4A13602A4A13602A4A13602A4A13604522294B1A60053A294B1A600132284B1A600132284B1A600132274B1A602749082000F00EFF082000F080
:40010000F5FE256070BDC04630001040001BB7000600008004010B400C020B4078002E402D3E00007C002E4064F02E406CF02E40DC050000100301400000014044FF008093
:400140001403014045FF00800003014040FF00800403014041FF00800803014042FF00800C03014043FF008008010B4000010B402801014024010140200101401C01014009
:400180001801014014010140100101400801014004010140F112000010B572B60022464B1A600132454B1A7000240FE044486200131959000B00411889881A5AC318588819
:4001C0000004104300F030FD0134E4B2012CEDD93B4801000C31543000F00CFD8022D202384B1A60384A394B1A60394A394B1A60EE221204384B1A60384A394B1A608022D6
:400200009203384B1A608022D203374B1A6099231B04364A1360364A1360364A1360364A364B1A601022364B1A6036490B782C32934314221343DBB20B70334A1178162354
:400240000B43DBB213703B22304B1A60304A314B1A603322304B1A602E32304B1A60304A304B1A600821304B196020232F4A136021222F4802602F4C2F4804602F480160BA
:400280002F490A603F212F4A11602F492F4A11602F4A13600B222F4B1A6003232E4A13602E4A1360023B2E4A13602E4A1360FFF7B3FE00F0CFFC10BD6CF02E401C700F40C0
:4002C000A472000014000B40003000EE000002400800990800010240000302400400990000500F4004500F4008500F4010500F4020500F4030500F4010550500600120400A
:400300002000104001700F4000700F4000000440400CD8000800044018000440000104408E1D1B00080104400C010440180104400002044008001800080204400C020440B2
:4003400018020440000304408040DA00080304400C030440180304400004044018040440000504401805044010B5064C2378002B07D1054B002B02D0044800E000BF0123DA
:40038000237010BD880100200000000028710000084B10B5002B03D00749084800E000BF07480368002B00D110BD064B002BFBD09847F9E7000000008C0100202871000077
:4003C000C000002000000000F0B55F4656464D464446F0B487B000226C4B1A607AE06C4C6C49200005F0F0F9200000F06BFD6A4B98466A4F6A4E6B4D6B4B02936B4B9A4612
:4004000001936B4B9946009343463A003100280000F06EFB0022AB5E664D0493180002F0A5FE296802F0A6F828600020315E624D0591080002F09AFE296802F09BF828609C
:4004400000203F5E5D4D380002F090FE296802F091F8286040460025455F594E280002F085FE316802F086F8306048460026865F54488346300002F079FE5A46116802F0FB
:4004800079F85A46106050460022805E82464E488346504602F06AFE5A46116802F06AF85A46106050460390029601950097059B049A4649200005F087F9200000F002FD32
:4004C000434800F0FFFC192000F05EFD2F4A1368013313602D4B1A683E4B9A4200DC7EE7344D3D49286802F0BBF92860324E3A49306802F0B5F93060304C3749206802F0C1
:40050000AFF920602E4F3449386802F0A9F938602C4B99463049186802F0A2F94B461860294B9A462C49186802F09AF9534618602A4800F0C7FC306802F0F6FD0490286843
:4005400002F0F2FD0600124D5246106802F0ECFD03904A46106802F0E7FD0290386802F0E3FD0190206802F0DFFD0090049B32001B49280005F028F9280000F0A3FC07B07D
:400580003CBC90469946A246AB46F0BDA40100200803002030710000D802002014050020EC010020C8020020F8020020F401002004030020FC040020F4020020F0010020B0
:4005C000D002002000030020100500204471000094720000E703000000007A4474710000A8710000F0B557464E46C0B489B062B600F0A0F900F0ECFB62B600F053FA00F010
:40060000D1FA00F0EFFA002801D0994800E0994800F058FC984800F055FCFFF7D5FE012001F0C8F8012001F0D1F8012001F0DAF8924800F047FC924B9A46924F924C934D53
:40064000934B0293934E0196934B9946009353463A002100280000F04BFA0023E85E02F085FD8E4B196802F0D9FB8D4DE221890502F0C0FA28600023E05E02F077FD894BB7
:40068000196802F0CBFBE221890502F0B3FA864C049020600022B85E02F068FD071C8D21C905824B186802F0B9FB011C381C02F0B5FBE221890502F09DFA7D4F07903860A2
:4006C00053460020185E02F051FD7A4B196802F0A5FB04F0D1FA784A784B03F0BBF804F01FFB774B18604B460020185E02F03EFD744B196802F092FB04F0BEFA6E4A6F4B50
:4007000003F0A8F804F00CFB6F4B18600020305E02F02CFD6D4B196802F080FB04F0ACFA654A664B03F096F804F0FAFA684B18600799049801F082FA664902F05BFA04F069
:400740009BFA654A654B03F085F8654E04F0E8FA30602D682068011C02F04CFA041C3868011C02F047FA011C201C01F003FF041C201C04F081FA01F001FA04F0D1FA011C9B
:40078000281C01F05BFA534902F034FA04F074FA514A524B03F05EF804F0C2FA051C514B1860306804F068FA049005914E4C281C04F062FA00900191049A059B4B492000D1
:4007C00005F002F8200000F07DFB34684849201C01F0C6FE00280AD0464800F073FB002001F000F8FA20400000F0CEFB3AE04249201C01F0A1FE002811D0404800F062FB0B
:40080000002000F0D7FFFA246400200000F0BCFB002000F0DBFF200000F0B6FB22E0314B1C683349201C01F09BFE00280AD0344800F048FB002000F0C9FFFA20400000F0C7
:40084000A3FB0FE02C49201C01F076FE002809D02C4800F037FB002000F0ACFFFA20400000F092FBFA20400000F08EFBD7E6C046E8710000087200002872000048720000EF
:40088000D802002014050020EC010020C8020020F8020020F401002004030020FC04002008050020F4020020FC010020F0010020FC020020D00200200AD7A3703D626040E4
:4008C0000405002000030020F801002010050020D402002000003443182D4454FB210940CC0200200C050020000200205C7200000000204274720000000020C28072000084
:400900008C7200009872000010B50A2000F0EEFA10BDC04610B500F03DFD10BD10B5044A1368802109060B431360FFF7EDFF10BD0000254010B5064B1B78002B04D1FFF7A7
:40094000E9FF0122024B1A70FFF7E8FF10BDC046AC010020F8B504000E0017001D00002100F0A2FD300000F03FFE0121200000F0C9FE002206E06E1C002000F079FE28706E
:4009800022003500531CDCB27B1E9A42F3DB012000F06EFE287000F0E9FDF8BD10B513000122FFF7D7FF10BD70B5049D01249C40013CD61A0136B440E4B22A00FFF7EEFFAA
:4009C0002B781C4034412C7070BDC046F8B50C0017001D00002100F067FD200000F004FE002205E06E1C287800F0FEFD22003500531CDCB2BA42F5D300F0B8FDF8BDC046AC
:400A000000B583B06B4607331A700122FFF7DEFF03B000BDF0B54F4680B484B000910AA90C78A14601249C40013CD21A571CBC40E6B202ABDD1D2A0000990190FFF7AEFFD3
:400A40004A46BA4032402B78A3431A432A7000990198FFF7D5FF04B004BC9146F0BDC046F0B583B004000D0016001F006B46DA1DFFF794FF002F07D00122B2406B460733AB
:400A80001B781A43D2B205E00123B3406A46073212789A436B46DA7129002000FFF7B0FF03B0F0BD6822014B1A7070470005002000B583B00300054A107800930223042250
:400AC0001B21FFF7A7FF03B000BDC0460005002000B583B00300054A10780093022304221C21FFF797FF03B000BDC04600050020F0B5474680B480460F0016001D00194CAC
:400B0000194B187823000E223B21FFF723FF23781B026278134342461380A3781B02E27813433B8023791B02627913433380A3791B02E2791343089A1380237A1B02627A02
:400B400013432B80A37A1B02E27A1343069A1380237B1B02627B1343079A138004BC9046F0BDC046DC0200200005002010B50300034A107806226B21FFF772FF10BDC0463C
:400B80000005002000B583B00300054A10780093032302226B21FFF73DFF03B000BDC0460005002010B50120FFF7ECFF0020FFF77FFF0020FFF78CFF0020FFF7D7FF10BD63
:400BC00010B582B0054B1878054C0094062306227521FFF7E9FE207802B010BD00050020DC02002010B5FFF7EBFF343843425841C0B210BDF0B50025002711E0BB00C65812
:400C0000F3B2FF22964308E06A008A181478A419527822700135013BDBB2002BF4D10137062FEBD9F0BDC04610B50A00002104F04DF910BD064B1B68002803D08022120629
:400C4000134301E05B005B08014A13607047C04680033A4010B580231B060F4A136003220E490A600E480F4908600F480F4908600C200F4908600F490A600F4A13600F4ACC
:400C80000F4B1A600F4A104B1A6000220F4B1A600B38FFF7CFFF10BD000030403000304004400400800030400240040088003040C00030403000314000003A400902430049
:400CC00000033A400B00430040033A40000E3F4010B504F0CFF803680C2B00D1FEE7FEE710B50300094A1068C318094A9A1A802189008A4202DC054A136005E004F0BAF88C
:400D00000C2303600120404210BDC046C40000204005002070B50F4E0F4D13E029686B68AC68002202E001C901C30432A242FAD1E868002202E0002102C304328242FAD1A3
:400D40001035013E002EE9D104F09AF8FFF74AFCFEE7C046010000003076000010B50E4A136801218B43136000230AE0032B03D89A000A49505800E009489900094A885018
:400D800001332F2BF2D9FFF707FA034A116801230B43136010BDC0460000104000000000D10C00000000002010B500F075F810BD10B500F01DF810BD10B5044A1368802163
:400DC00009060B431360FFF7EFFF10BD0000244010B5064B1B78002B04D1FFF7E9FF0122024B1A70FFF7E8FF10BDC046B4010020154A164B1A600023154A13601549164A1B
:400E00001160164A16490A6007201649086016490B6006381549086015490A60154A13600421154A1160154A1360154A1360154A1360154A1360154A1360154A1360126867
:400E4000144B1A807047C0460B000002000024404000244001000A00480024400700008000032440040324401003244044002440000224400402244050002440880E2440FA
:400E8000C80E2440480F2440080F2440C80F2440880F2440B6010020064A1168064B0B40902109040B431360044B1A88044B1A607047C04600010240FFFF0FFFB601002034
:400EC000880F244070B50500002402E000F0A8FC0134285D0028F9D170BDC046024B1B68012018407047C0460C002E401F2318401E3B8340014A13607047C04600E100E0E2
:400F00001F2318401E3B8340014A13607047C04680E100E001BE704770B504000D001F2802D90020FFF7F6FF1034A40080239B059C4664442068256070BDC04670B5040048
:400F40000E00032902D90020FFF7E4FF1F2C02D90020FFF7DFFF03252540ED00063500F058FCA408A400074B9C46644421680323AB4099430B003100A9401943216000F0BC
:400F80004CFC70BD00E400E010B5040006E0084B586800F035FC074B9C46644480231B029C42F4D8024B9868604300F029FC10BDC80000200080FFFF10B5034B1B7B584353
:400FC00000F01EFC10BDC046C8000020F0B557464E46C0B483B0040000F01BFC0190E71E2D2F74D83F4B1B78DBB29C4208D83E4B1B78DBB29A463D4B1B78DBB2994631E0DD
:401000003B4B1B78DBB29C4208D83A4B1B78DBB29A46394B1B78DBB2994623E0374B1B78DBB29C4208D8364B1B78DBB29A46354B1B78DBB2994615E0334B1B78DBB29C4270
:4010400008D8324B1B78DBB29A46314B1B78DBB2994607E02F4B1B78DBB29A462E4B1B78DBB299462D4BDE5D2F2E09D92A2C07D919222B4B1A60052000F0C2FB192503E079
:40108000274B1D683F231D40B54206D9234BDA5D234B1A60052000F0B3FB1F4B9C4664442378DBB21F4A13601F4B52461A601F4B4A461A600520FFF77FFFB5420AD2174B9E
:4010C000DA5D174B1A60052000F09AFB02E00020FFF720FF019800F0A0FB03B00CBC91469A46F0BD40F3FF0F41F3FF0F42F3FF0F43F3FF0F44F3FF0F45F3FF0F46F3FF0F3D
:4011000047F3FF0F48F3FF0F49F3FF0F4AF3FF0F4BF3FF0F4CF3FF0F4DF3FF0F147300002CFF0B4028FF0B401CFF0B4020FF0B4010B504000F4A116801230B4313600E4A8B
:401140000E4B1A600E4A1368802109020B431360002809D100200CE00120FFF72DFFFFF7BDFE002804D1013C002CF5D1102000E0002010BD60F02E400220000078002E406B
:4011800010002E40034B1868C0231B02184000D00120704700010B4010B50D4B1A6801218A431A601A68022082431A60094A10683024A043203C204310601068093CA043DB
:4011C000014311601A68802109060A431A6010BD00F02E4000FF2E4070B51D4B1B6801241C40002802D0012816D02BE0184B19680122914319601968022081431960154B70
:4012000019682E3081432038014319601968093881430A431A6018E00D4B1A6802218A431A600C4A10680725A84301431160116830208143103801431160196801220A4358
:401240001A6002E00020FFF765FE200070BDC04600F02E4000FF2E4010B500F0DAFA044A1368C02109020B43136000F0D6FA10BD00010B4010B500F0CCFA08490A68084B12
:401280001A408024E40122430A600A6813408022120213430B6000F0C0FA10BD00010B40FF3FFFFF70B5050000F0B3FA0400FFF769FF002803D0FFF7DDFF012100E0002128
:4012C00008482840084A1568084B2B40184310601368012901D1FFF7BFFF200000F09DFA70BDC0460404040010020B40FBFBFBFF10B5244B1B685B0715D5234B5B685B07EA
:401300000ED5224B596A042001401F4C62688A4362605A6A82435A629B69002B00D098470420FFF7BFFF174B1B685B0518D5164B5B685B0510D5154B596A8022D2001140F3
:40134000114842688A434260596A114A0A405A62DB69002B00D098478020C000FFF7A2FF084B1B685B030CD5074B5B685B0304D5064B1B6A002B00D098478020C002FFF759
:4013800091FF10BD10020B40DC000020B8010020FFFBFFFF10B50024184B1C60184A194B1A60194B194A1360194A1460194A1460194A1360194B1C600A20FFF7A1FD03211E
:4013C0000A20FFF7BBFD16490A20FFF7A5FD154B1C60154B1C60154B1C60154B1C60154B1C60154B1C601022144B1A70144B1C80144B1C60144B1C6010BDC04600002540C8
:4014000077080080600025400701008000032540040325401003254000022540040225403D180000C80E2540880E2540480F2540080F2540C80F2540880F2540160500200C
:40144000340500201C0500202805002010B50E4A13685B005B08136000230C490B600C490B600C4804680C49214001600B490B600B490B6010210B4B197013688021090689
:401480000B43136010BDC04600002540680025406C00254060002540FF5CFFFF880F2540C80F25401605002070B504000D00294B1B78102B49D1284B1B68DB0747D40A2055
:4014C000FFF71EFD6400FF231C40002D03D12422204B1A7004E025221E4B1A7001231C431E4B1C601E4A1F4B1A6002221E4B1A601C4B1A680823FF331A42F9D0194B1B6892
:401500005B0714D4174B1B689B0713D4154B1B68DB0705D510220F4B1A70012401210BE010220C4B1A7080246400012104E00024002101E0022400210822FF32094B1A6055
:40154000002905D0FFF782FF02E0042400E00824200070BD16050020640025404002254017030000000F25406800254010B51A4B1B789B062CD5194B1B689B0601D5182296
:4015800000E01022164B1A60164B1A681223FF331A42F9D0134B1B68DB0606D4114B1B68DB0705D50124012105E00024002102E08024640001211222FF320A4B1A60023AAB
:4015C000FF3A054B1A70002903D0FFF73FFF00E00424200010BDC046160500206400254068002540000F254010B51E4B1B789B0634D51D4B18601D4B1A680823FF331A427A
:40160000F9D01A4B1B685B0705D56022154B1A700024002119E0154B1B689B0705D56022104B1A70022400210FE0104B1B68DB0705D510220B4B1A700124012105E010220D
:40164000084B1A708024640001210822FF32074B1A60002903D0FFF7F9FE00E00424200010BDC0461605002040022540000F254010B50100154B1B789B0623D5144B1B68CE
:401680005B0705D4134B1A680223FF331A42F5D00F4B1B685B070DD50F4B186804220C4B1A60002902D10D4B1A600DE06022074B1A7009E00A4A074B1A60FFF7C7FE0120A7
:4016C000404201E00120404210BDC04616050020C00F2540000F2540400325406800254017030000054B1B682022134000D0082301221343024A13607047C046640025407E
:401700006800254010B5264B1B789B0645D54000FF240440002903D12422214B1A7004E025221F4B1A7001231C431E4A1E4B1A60FFF7D8FF1D4B1B68DB07FBD41C4B1C603F
:40174000194B1A680823FF331A42F9D0164B1B685B0714D4144B1B689B0713D4124B1B68DB0705D510220E4B1A70012401210BE010220B4B1A7080246400012104E0002441
:40178000002101E0022400210822FF32064B1A60002903D0FFF75AFE00E00424200010BD1605002017030000000F2540680025404002254004490A68D2B240239A4380013A
:4017C00018401043086070470002044004490A687F231A40C301D8B2104308607047C0460003044004490A68D2B240239A43800118401043086070470003044000000000FC
:401800000230800803D00138FDD1C046C046C0467047EFF3108072B6704780F310887047044B1B681F221340082BF9D0024B18607047C046080224404002244010B5AF4B81
:401840001B68002B00D09847AD4B1B68DB0702D50022AC4B1A60AC4B1B789B0628D5AB4B1B68DB0507D5AA4A1188C0239B000B431380012300E00023A44A1268D20706D5B8
:40188000A34A118890239B000B4313800123002B0FD09D4A1278D20701D5012200E002229B49088802430A800021974A117000E00023954A1278920600D417E1934A126811
:4018C000D20611D51022934B1A608F4B1B78DB0701D5012300E002238D4A11880B4313801022894B1A7007E1874A1278120720D5864A126892070AD50222864B1A60844A21
:40190000118888239B000B431380012311E07E4A1278D20703D525217B4A117009E02421794A11707C4A1268002A02D014397B4A1160754A1278520700D4AEE0724A1278C8
:40194000D20749D5764A1268120727D5754A1268754909681F240C40744909686418141B082C09D8002C16D1714A1168714B0B401360012308340EE008240CE06B4A1168E7
:401980006D48006841186D480068C0B20870116801311160013C002CF0D119E0604A1268520715D5614A116863480068411863480068C0B208701168013111601168594A3F
:4019C0001268914203D204215D4A116000E001235C495D4A116060E04C4A1268920726D502224C4B1A6059490B681D321A40096880231B020B4000D001239B18544A1168B6
:401A0000CB1A13601268534B1A60414A118884239B000B431380504B1A68802149020A431A6019684D4A0A401A60012335E04C4A1268D2061ED427E0454A1168364A1268AD
:401A400091421DD2344A1268013A414909688A4204D1402243490A6030490A603C4A11684148006841180978C9B240480160116801311160354A12681F210A40082ADBD1EF
:401A80001021384A116008E0354A1268520604D52F4B1A682F4B1A600123002B2CD0244A1168244B0B4013600023314A13601B4A1360304B1B789B070ED5134B1B78DB0752
:401AC00001D5092300E00A23114A11880B43138060220D4B1A700FE0274B1B689B0601D5182200E01022164B1A6005E0064B1B78DB0601D4FFF7AAFC10BDC046B00100205D
:401B00008C0E2540880E2540160500200C0F254034050020000F254020050020880F2540CC0F254030050020080325401C05002060002540FFFEFFFF3805002040032540D7
:401B400068002540ED0F0000C00F254008022540180500202805002004022540FFFFFEFF8C0F2540800F25402C05002040022540C80F25402405002064002540F0B546469E
:401B80004F46C0B48DB004000D0000F05BF8294B009001911B785BB29846013312D022002B002000290003F047F88146002809D10026002732003B002000290000F078FC69
:401BC000002806D1009801990DB00CBC90469946F0BD01230293184B0694079503934B460A93434604940595002B15D03B0032003000390001F02EFE434608900991022B11
:401C00000CD103F037F9212303600A9B0093002B0AD108980999D7E70896099702A800F099F90028F1D1ECE703F024F90A9B00930360EEE7E40000204473000010B500F0A8
:401C4000F7F810BDF0B556464D4644465F46754BF0B40A000D00190083B0060004002940994200D1BAE0002D00DC94E02D1500D1A3E06D4B12039C468023120B5B0365449C
:401C80001A43EB0700D581E06B109846E30F9B189B18802216210026002764009203B818984202DC87181B1AB618E00F5B0001391B18640052080029F1D1002201929446B6
:401CC000802212062020914609E09F4241D0E10FC9180138CB186400520800281ED0614651189F42F1DA8D18AC46CD0FED07BA464D4539D0DB1B8C42BF417F42DB1B641AC0
:401D0000019901388B46934459460191E10FC9185746CB18640052080028E0D123432BD1019B5B08414972108C466244F10702D5802109060B43414609058D181E002F00D6
:401D40003000390003B03CBC90469946A246AB46F0BDA1420ED88D18AC46CD0FED074D4548D09A460023CAE76546002DC2DB7D1CAA46BFE73B00AAE7019B01333ED0019A9D
:401D800001239446134063445B08CBE7E30F52009A18640078E76B005B0803432F00002BCED00025002A31D1E20A153D6405002AFAD080235B031A4223D18020002340030E
:401DC00000E00B005200591C0242FAD02020401AED1A2300C3408C401A434AE702002B00290002F05BF932002B0001F007FA06000F00A5E76546002DB9DAB2E70136002318
:401E000090E7012320205B420021E1E73B000200390002F0BDFB02000B0001F01BFD06000F008DE70000F07F01FCFFFF0000E03FF0B54B0047460C1CFF2180B45B08C905CF
:401E40008B4215DC4200804652088A4210DCFE25AD05AC423ED00227A5173D40C70F3D43002A0CD1022D31D0032D05D1304803E0011C201C00F07EFB04BC9046F0BD002B39
:401E80001DD08B4229D08A4219D0D31ADB153C2B1ADC002C3ADB211C00F0E2FC00F078F900F05AF8012D2CD0022D22D0002DE3D0204900F05FFB204900F0B0FFDCE743465F
:401EC000002B05DB1D48D7E71C48EBE71A48D3E71B48D1E700F040F8CEE79A421AD0022DF4D0032DC2D00020012DC5D180200006C2E7104900F03EFB011C0F4800F08EFF49
:401F0000BAE780231B069C466044B5E73C33C2DA0020C7E7022D05D0032D07D0012D03D00848A9E70848A7E70848A5E70848A3E7DB0F49C02EBDBB33DB0F4940DB0FC93F90
:401F4000DB0FC9BFDB0F493FE4CB1640DB0F49BFE4CB16C000207047F0B54746754B440080B4051C070064089C420BDDFF23DB059C4200DD72E0002800DC9DE06E4804BC60
:401F80009046F0BD6D4B9C4279DC6D4B9C4269DD01267642291C281C00F02CFE011C804600F028FE6749041C00F024FE664900F0E1FA211C00F01EFE644900F0DBFA211C08
:401FC00000F018FE624900F0D5FA211C00F012FE604900F0CFFA211C00F00CFE5E4900F0C9FA414600F006FE5C498046201C00F001FE5B4900F012FF211C00F0FBFD5949C4
:4020000000F00CFF211C00F0F5FD574900F006FF211C00F0EFFD554900F000FF211C00F0E9FD011C731C49D0404600F0A3FA291C00F0E0FD4E4BB600F15800F0EFFE291C94
:4020400000F0ECFE4B4B011CF05800F0E7FE002F95DA80231B069C46604490E7011C00F089FA8CE7444900F085FAFE21890500F06DFA0300281C002B00D080E788E700F04C
:4020800087F83E4B051C9C4223DC3D4B9C423FDC011C00F06FFAFE21890500F0BFFE8021041CC905281C00F065FA011C201C00F0D7FB0026051C6DE7324860E7404600F0BA
:4020C00059FA291C00F096FD011C281C00F0A6FE55E72D4B9C4214DCFF21890500F09EFEFF21041C8905281C00F084FDFE21890500F040FA011C201C00F0B2FB0226051C7B
:4021000048E7011C214800F0ABFB0326051C41E7FE21890500F082FEFE21041C8905281C00F028FA011C201C00F09AFB0126051C30E7C046FFFF7F50DB0FC93FFFFFDF3E85
:40214000FFFFFF30D769853C59DA4B3D356B883D6E2EBA3D2549123EABAAAA3E21A215BD6BF16E3D95879D3D388EE33DCDCC4C3E4C7300005C730000CAF24971FFFF973F10
:40218000FFFF2F3FDB0FC9BFFFFF1B40000080BF400040087047C046002243088B4274D303098B425FD3030A8B4244D3030B8B4228D3030C8B420DD3FF22090212BA030C4E
:4021C0008B4202D31212090265D0030B8B4219D300E0090AC30B8B4201D3CB03C01A5241830B8B4201D38B03C01A5241430B8B4201D34B03C01A5241030B8B4201D30B03E4
:40220000C01A5241C30A8B4201D3CB02C01A5241830A8B4201D38B02C01A5241430A8B4201D34B02C01A5241030A8B4201D30B02C01A5241CDD2C3098B4201D3CB01C01ADF
:40224000524183098B4201D38B01C01A524143098B4201D34B01C01A524103098B4201D30B01C01A5241C3088B4201D3CB00C01A524183088B4201D38B00C01A52414308C6
:402280008B4201D34B00C01A5241411A00D20146524110467047FFE701B5002000F0F0F802BDC0460029F7D076E7704703460B437FD4002243088B4274D303098B425FD3DE
:4022C000030A8B4244D3030B8B4228D3030C8B420DD3FF22090212BA030C8B4202D31212090265D0030B8B4219D300E0090AC30B8B4201D3CB03C01A5241830B8B4201D3BB
:402300008B03C01A5241430B8B4201D34B03C01A5241030B8B4201D30B03C01A5241C30A8B4201D3CB02C01A5241830A8B4201D38B02C01A5241430A8B4201D34B02C01AE9
:402340005241030A8B4201D30B02C01A5241CDD2C3098B4201D3CB01C01A524183098B4201D38B01C01A524143098B4201D34B01C01A524103098B4201D30B01C01A52416B
:40238000C3088B4201D3CB00C01A524183088B4201D38B00C01A524143088B4201D34B00C01A5241411A00D201465241104670475DE0CA0F00D04942031000D34042534031
:4023C00000229C4603098B422DD3030A8B4212D3FC22890112BA030A8B420CD3890192118B4208D3890192118B4204D389013AD0921100E08909C3098B4201D3CB01C01AB2
:40240000524183098B4201D38B01C01A524143098B4201D34B01C01A524103098B4201D30B01C01A5241C3088B4201D3CB00C01A524183088B4201D38B00C01A5241D9D2A4
:4024400043088B4201D34B00C01A5241411A00D20146634652415B10104601D34042002B00D54942704763465B1000D3404201B5002000F005F802BD0029F8D016E770471F
:402480007047C0468446101C62468C46191C634600E0C0461FB501F097FD002801D40021C8421FBD10B501F0EBFC4042013010BD10B501F089FD002801DB002010BD012063
:4024C00010BDC04610B501F07FFD002801DD002010BD012010BDC04610B501F011FD002801DC002010BD012010BDC04610B501F007FD002801DA002010BD012010BDC046A8
:402500008446081C6146FFE71FB500F02FFB002801D40021C8421FBD10B500F0BBFA4042013010BD10B500F021FB002801DB002010BD012010BDC04610B500F017FB00289F
:4025400001DD002010BD012010BDC04610B500F0C9FA002801DC002010BD012010BDC04610B500F0BFFA002801DA002010BD012010BDC046F8B54A02430244004E00C50F48
:40258000240E28009B09360EC90F92098D4259D0A01B002800DC8DE0002E1AD1002A00D079E05A0704D00F221A40042A00D004335A0138D50134FF2C00D189E028009B011B
:4025C0005B0AE4B25B02E4055B0A2343C0071843F8BDFF2CE5D08021C9040A431B2800DD89E016002021C640081A8240511E8A4132439B1A5A0114D59B019E09300002F086
:402600001BFC05388640844265DC041B330020200134E340041BA640721E964100243343BFE75A07BFD1DF082800FF2C2FD1002F00D187E08022D20313003B435B025B0A87
:40264000FF24BFE7A11B002949DD002E29D0FF2CA7D08026F60432431B2900DD8DE017002026CF40711A8A40511E8A413A439B185A01D6D50134FF2C64D0012276491A4019
:402680005B080B4013438CE7031ECAD100207B025B0AE4B296E701380028AAD0FF2C9DD17FE7002A00D17CE701390029DFD0FF2CD2D176E7002820D1601CC0B2012853DDFD
:4026C00080279E1AFF0437402FD0D61A0D0095E72800002376E7614B241A334061E700294DD1611CCEB2012E2FDDFF292AD09B185B080C0055E701227BE7002C1BD1002B75
:402700005BD0C04300280CD0FF2E7ED01B2800DD92E01D002024C540201A8340581E83412B43D31A34000D0064E7002E00D065E700200024ABE7FF2E67D08024E404404244
:402740002343E3E7FF2400233CE7002C61D1002B7ED0002A00D124E79B185A0100D460E73E4A0C0013401CE7002C1ED1002B2FD1002A66D013000D0013E7012277E7002C63
:402780001FD1002B5AD0C94300290BD0FF2E50D01B295FDC1F002024CF40611A8B40591E8B413B439B18340062E7002B1CD1002A4AD013000D00FF24F3E6130034000D0083
:4027C000EFE6FF2E35D08024E40449422343DFE7002A00D1E5E68027981AFF04074000D152E7D31A0D00DCE6FF24002A00D1D8E68020DB08C003034204D0D208024201D135
:4028000013000D00DB00FF24CBE61300FF240D00C7E6002B0DD0FF24002A00D1C1E68021DB08C9030B42EDD0D2080A42EAD11300E8E71300FF24B4E6012372E7130034005B
:40284000AFE60027002022E780270020FF03F1E61300A6E60123A5E7FFFFFF7DFFFFFFFBF0B5564644465F464D46F0B444024600C70F83B08846650A360EBA463DD0FF2E1B
:4028800022D00023EC00802599469B46ED0425437F3E43465C025800DB0F640A000E984636D0FF2830D080230021E400DB041C437F38301A0190484642460843724E8000D3
:4028C00030587A4013008746002D44D108239946063B9B46DDE70122FF2000241A406402C305640AD2071C431443200003B03CBC90469946A246AB46F0BD002D20D104234E
:402900009946033B9B46C4E7002C17D1022102E0002C0AD10121321A01924A4643460A435A48920082587B409746200002F084FA431F76309C4040420021BAE70321B8E746
:40294000280002F079FA431F9D4000237630464299469B469DE70C239946093B9B4698E780240022E403FF20B9E70024C2468B465A465346022AAED0032A7DD0012A31D151
:40298000012200201A400024A9E70122101A1B2856DD1A4000200024A1E78023DB031D424BD18023DB032B435C02640A3A00FF2095E76D016001854230D2019A0024013ABF
:4029C00001921B220127290064006D00002901DBA84201D82D1A3C43013A002AF3D16A1E95412C4301987F300028CEDD620704D00F222240042A00D00434220103D5244AD7
:402A0000019814408030FE2800DD64E70122A401640AC0B21A4062E72C00A9E72D1A1A220124CFE76B02BCD500248023DB031C436402640A4246FF2051E71C42B3D1F4E7D4
:402A400021002022C140101A8440621E94410C43620704D00F222240042A00D00434620104D5012201201A40002438E70122A401640A1A40002032E78023DB031C4364022E
:402A8000640A5246FF202AE76C730000AC730000FFFFFFF7430270B542004C005D0AC30F4802120E460A240EC90FFF2A0FD0FF2C11D00120A24200D070BDB542FCD18B4252
:402AC0000DD0002AF8D12800431E9841F4E70120002DF1D1EBE70120002EEDD1E9E70020EAE7C0464302F0B542005D0AC30F4802440A4800120E000EC90FFF2A1FD0FF2889
:402B000022D0002A09D16E426E4100280FD1002C0DD10020002D09D005E0002801D1002C01D08B4213D0584201231843F0BD002EF7D048424141012049420843F6E7002DB4
:402B4000DDD002204042F1E7002CDAD0F9E78242E9DC04DBA542E6D80020A542E6D25842434101205B421843E0E7C0464302F0B542004C005E0AC30F4802120E450A240E09
:402B8000C90FFF2A17D0FF2C19D0002A0BD170427041002C17D0002807D048424141012049420843F0BD002C13D08B4214D0584201231843F6E70220002EF3D1E3E7022038
:402BC000002DEFD1E1E7002DE5D10020002EE9D0EDE7002DE9D1EAE7A242E8DC04DBAE42E5D80020AE42DDD25842434101205B421843D7E7F0B557464E4645464300E0B48A
:402C000046028846760A1F0EC40F002F47D0FF2F25D0002380259A469946F600ED042E437F3F434642465D02D20F5B006D0A1B0E904640D0FF2B39D080220020ED00D2040E
:402C400015437F3BFB1842465746591C62408C4607430F2F5CD86F49BF00C9598F46002E45D108239A46063B9946DAE7424602282DD0032800D1C3E0012800D0A2E00025D9
:402C800000260240D4B27602ED05760A2E43E407264330001CBC90469946A246F0BD002E1AD104239A46033B9946BAE72A00511E8A41901CC6E70120002DC3D0280002F08F
:402CC000BBF8431F76309D4043420020BAE70124FF2514400026D6E7300002F0ADF8431F9E400023763047429A46994699E70C239A46093B994694E780260024F603FF254A
:402D0000C1E735004846B2E7350022004846AEE72904090C0800370C3604360C2C0C7943704367437443060C64183619B14203D980214902884647440004000C31040918AD
:402D40008D01681E8541890E2943350CED19AD010D43290104D5012369081D4063460D4319007F31002925DD680704D00F202840042800D00435280103D5274980330D40CF
:402D80001900FE29A3DC0124AD016E0A1440CDB279E78020C003064207D0054205D128434602760A4446FF256DE706437602760AFF2568E70124611A1B2905DD144000250F
:402DC000002660E76346CBE72E002023CE40591A8D406B1E9D412E43730704D00F233340042B00D00436730104D5012401251440002648E70124B601760A1440002542E709
:402E000080260124F6032E437602760A1440FF2539E7C046EC730000FFFFFFF7F8B54A024E0043024400240EC50F9B09360EC90F9209FF2E00D183E001204140A01BA9429A
:402E40005CD0002800DC95E0002E1CD1002A00D081E05A0704D00F221A40042A00D004335A013BD50134FF2C00D191E001209B015B0AE4B205405B02E4055B0AED07234333
:402E80002B431800F8BDFF2CE3D08021C9040A431B2800DD90E016002021C640081A8240511E8A4132439B1A5A0115D59B019E09300001F0C1FF0538864084426CDC041B70
:402EC000330020200134E340041BA640721E964100243343BDE70D005A07BCD1DF0801231D40FF2C33D1002F00D190E08022D20313003B435B025B0AFF24BCE700284FDD77
:402F0000002E2ED0FF2CA4D08025ED042A431B2800DD97E016002025C640281A8240501E824132439B185A01D5D50134FF2C6DD001227B481A405B08034013430D0088E714
:402F4000002A00D07AE777E7031EC5D100257B025B0AE4B28FE701380028A4D0FF2C97D177E7002A00D174E701380028DAD0FF2CCDD16EE7002821D1601CC0B2012858DD23
:402F800080279E1AFF0437402FD0D61A0D008FE701231D4000236EE7624B241A334058E7002851D1601CC6B2012E33DDFF282DD09B185B0804004CE7012274E7002C1AD0AE
:402FC000FF2E1FD08024E404404223431B2800DD96E01D002024C540201A8340581E83412B43D31A34000D005EE7002E00D05FE700250024ABE7002B44D0C0430028F0D0E4
:40300000FF2EE3D11300FF240D0022E70D00FF24002330E7002C5DD1002B7DD0002A00D117E79B185A0100D456E73E4A040013400FE7002C1ED1002B2FD1002A65D0130082
:403040000D0006E701226DE7002C1FD1002B59D0C04300280BD0FF2E4FD01B285EDC1D002024C540201A8340581E83412B439B18340058E7002B1CD1002A49D013000D00F4
:40308000FF24E6E6130034000D00E2E6FF2E34D08024E40440422343DFE7002A00D1D8E68027981AFF04074000D14DE7D31A0D00CFE6FF24002A00D1CBE68020DB08C00375
:4030C000034204D0D208024201D113000D00DB00FF24BEE6002B10D0FF24002A00D1B8E68020DB08C003034203D0D208024200D11300DB000D00FF24ABE61300FF24A8E67E
:4031000001236EE713003400A3E6002700251EE780270025FF03E9E613009AE60123A6E7FFFFFF7DFFFFFFFB4302590A4300C20F1B0E00207E2B0EDD9D2B0DDC80200004B4
:403140000143952B0BDC9620C31AD9400B005842002A00D118007047034BD018FBE7963B99400B00F3E7C046FFFFFF7F70B5002830D0C317C5185D40C40F280001F05CFE39
:403180009E231B1A962B0DDC9622D21A95406A02520AD8B25202C005520AE40702432243100070BD992B19DC9922D21A9540124A2A40690704D00F210D40042D00D004326A
:4031C000510103D50C4B1A409F231B1A9201520AD8B2DFE7002400200022DBE705222E00121AB921D6402A00C91A8A40551EAA4135001543DBE7C046FFFFFFFBF8B556465A
:403200005F464D464446F0B40F00FD0FAA4609037C002E005F00450F490A7F0D2943C5001803BC46400A570F640DDB0F3843D2009A4500D1AAE06646A61B002E00DCFFE09F
:403240006346002B39D10300134300D0D9E06B0709D00F232B40042B05D02B1DAB42AD416D4249191D000B0200D482E0CA4B01349C4200D1FEE00A005646C84BED081A402F
:403280005007640552020543120B640D002112030B0D1B056405120B1A436308C04CF60714401C43640064083443280021003CBC90469946A246AB46F8BDB74B9C42C6D06B
:4032C00080231B041843382E00DDEBE01F2E00DD1EE120239B1B9C4603006746BB40984613004746F3403B436746BA40571EBA4113430200F240EB1A9D42B6411D008A1A88
:403300007642911B0B0231D54A02560A002E00D1B4E0300001F090FD0300083B1F2B00DDB5E020222900D21AD1409E400A009D4032439C4200DDB1E01C1B631C1F2B00DD5C
:40334000D5E0202114002800C91A8C40D8408D400443DA40681E854111002543002476E74146314300D134E2310045466B0700D06FE756464807ED08C9080543864B9C4202
:4033800035D00A036405120B640D7FE76346E31A9B46002B00DC8BE06746002F3CD07E4FBC4200D153E780273F0438435B46382B00DCF7E00243501E82410020D2B2531945
:4033C0004218AB4289411D00494289180B02CDD5714B01349C4200D13DE101206F4A6B080A4028401843D507054351082FE72B000B4300D1CBE180231B030B431A03120BDA
:4034000044E7013E002E6DD1AE1AB5429B41091A5B42C91A350075E70700174300D116E701235B429C46E3445B46002B00D0E0E0AA18AA429B4109185B4259181500C5E718
:40344000002E75D1661C7605760D012E00DCF3E0AE1AB0464545BF410E1A7F42F61B370200D48FE0551BAA42B641411A76428E1B9A464BE756460022002507E7280001F0B1
:40348000DBFC20300300083B1F2B00DC49E72A002838824000259C4200DC4DE73F49E41A1140D4E60243501E8241D3B2002222E7002B00D0F3E0631C9C465B055B0D012B10
:4034C00000DC9FE0344B9C4500D1C3E0AA180918AA42804140424118CD075208154349086446B4E62C4B9C4200D0ECE6AFE611001F3CE1400C00202B00D17FE04021CB1A31
:403500009A4015436A1E95410021254300242DE733000700203BDF403B00202E70D04027BE1BB0400243501E824113430022E2E6002C4FD0184CA44500D1ABE08024240417
:4035400076422143382E00DDDFE01F2E00DD43E12027BC1BA1460C004F46BC40A0462C004746F4403C434F46BD406F1EBD41F1402C43151BAA429241411A5242891A644603
:403580009A46BFE641464546314300D0BEE6002600240025F2E6C046FF070000FFFF7FFFFFFF0F801F2B59DC2027FF1ABC46070063469F405B46B9461700DF40B8464F4657
:4035C00043461F4363469A40531E9A415B463A43D840F4E60C002C435CD0F643002E55D1551BAA42A441411A6442091B9A46644688E6964FBC4200D0D8E628E6002280E767
:4036000000208FE70B002B43002C00D0C2E0002B00D101E10300134300D118E6AB18AB42B6410918764271180A0200D409E1884A1D00114064460AE6002C5BD10E002E4353
:4036400000D08AE00100114300D1C2E0010015009A46FCE56446002100258FE620235B429C46DC4463460700DF405B46BC46202B00D1ACE040235F46DB1B98400243501E87
:403680008241634613431A00002098E66F4CA44500D057E70100150064469A46D7E5002C39D10C002C436ED0DB43002B1AD0674CA44568D0382B00DDA4E01F2B00DDAEE013
:4036C00020240F00E41AA740B9462F00DF40B846A3464F46444627435C46A5406C1EA541D9403D43AD1895429B4109185B42591864466BE60C002C4315D1010011437BD0A2
:40370000010015009A46514CA1E50D43691E8D410021ECB22DE74D4CA44534D0802424045B422143C6E7040014434ED0ED084C072C438025C9082D03294208D0C6082E42A1
:4037400005D1D208410711430C009A463100620FC900E50011433D4C79E50600164300D175E5AE1AB0464545BF410E1A7F42F61B370200D4F4E5551BAA42B641411A76426E
:40378000891B9A4663E50100150064465FE5002200257BE5002B3BD00300134315D0ED084B072B438025C9082D03294207D0C4082C4204D141070B002100D2081343C90005
:4037C0005A0F1143DD00214C41E5204C3FE5002054E700260025D1E534000F00203CE7403C00202E2BD04027BE1BB1400D43691E8D4100212C43BCE6802100260903134C2B
:403800000025BBE50D43691E8D410021EDB269E7010015000D4C1AE50100150017E51C000F00203CE7403C00202B0CD04027FB1A99400D43691E8D410021254352E70021A0
:40384000D4E71D0092E50021F3E7C046FF070000FFFF7FFFF0B556464D4644465F46F0B41D000E034C00CB0F87B0070092468146360B640D98466AD06D4B9C4235D0802297
:40388000430F12041343F6001E43C3009946694B00279C460023644402932B0368001B0BED0F51469B46400D009500D178E0604B98426CD05B46DA004B0F802109040B4367
:4038C00013439B465346D9005A4B9C46002360444246201A6A40924601901F430F2F00D9B0E05548BF00C0598746374300D088E0002399460233082700260293CDE74346A1
:40390000B34649460093029B009A9246022B00D0BFE1002153460122002689461A40444B002136030C0D2405360B2643434C1B0526401E437600D207760816434846310064
:4039400007B03CBC90469946A246AB46F0BD330003434FD0002E00D1BCE1300001F06CFA03000B3B1C2B00DDADE11D220100D31A08393A008F408E40DA40B9461643304B75
:4039800000279C46002360444442029385E753465A4613432CD1002300219B46023397E70B4320D05B46002B00D19EE1584601F043FA03000B3B1C2B00DD8FE102005946A8
:4039C000083A91408B461D21CB1A5146D9400B0059460B4351469B469140194B9C4660444042002374E7002300219B4601336FE703236DE7002399460133042700260293A0
:403A00004BE703230C27029347E70122D51A382D00DCB0E153461A4000210023002689467EE700238026994600223603004B77E7FF07000001FCFFFF2C740000FFFF0F80E9
:403A4000F30300005E4500D972E100D16DE1019B4D46013B01930023340002935B461E020B0E1E430B020393330C994633041B0C494620000093FEF78FFB009B3700434304
:403A80000600494620009846FEF70CFC2C0C09040C43A04509D9E419731EA74200D95CE1A04500D859E1023EE4194346E41A49462000FEF771FB0300009A8046534349463B
:403AC00020009B46FEF7EEFB2A040904120C0A4393450DD94346D219013B974200D93AE1934500D837E102235B429C46D219E0445B46D21A4346360433439B460399180C24
:403B00000B0C1D00059309045B46090C0C001B041B0C4443049159436B4368431B190D0CEB189C4203D980246402A44660441C0C09041B04090C20185D18824200D2DEE087
:403B400000D1D7E0161A029B9C465D1BAC459B415B42F61AB74200D106E149463000FEF71BFB009B04004343494630009846FEF799FB2E0C09040E43B04509D9F619631E57
:403B8000B74200D9F3E0B04500D8F0E0023CF6194346F31A494618000293FEF7FDFA009B06004343494602989846FEF77BFB2D0409042D0C0D43A84509D9ED19731EAF4201
:403BC00000D9D6E0A84500D8D3E0023EED192404210043463143049E059A3000ED1A0B040C0C1B0C58436643534354439A19030C9B189E4203D980225202944664441A0C2C
:403C000000041B04000C14191B18A54250D34DD001231943964A019B94466344002B00DCF3E64A0709D00F220A40042A05D00A1D8A42894149428B4411005A46D20108D551
:403C40005A468C4B1A4093468022D2009446019B6344894A934200DD5BE65A46C908500708435602514601225B058146360B5B0D0A4055E680231B031E4211D05A461A42CB
:403C80000ED15E461E433603360B2A0089467B4B46E6032B00D1E1E0012BBBD11A40BBE61E433603360B4246744B39E6002BB1D07D194A1EAF4252D91100A542A8D1039A33
:403CC0009A42A5D1A6E703003E00283B9E400023994654E601F0B0F8203041E603005246283B9A400021934677E6504601F0A4F820305EE6029B0026AB4200D323E7039E03
:403D00000299B44661448846B045B6415B467642F619B218013B0291974213D290424FD800D18EE0161A9B460DE7894500D28EE674084B46F60735005B081D434B46DB070A
:403D400002938BE69742EDD10399029CA142E5D93E1A9B46F7E69846CAE61E00A5E6AC423ED874D0110053E70121494252E71C000EE71E002BE71F2D3CDC20230A00584675
:403D80005B1B9840EA4099400243481E81415E461143EE404B0709D00F230B40042B05D00B00191D99429B415B42F61833023CD55346012200211A40002601238946AFE5A6
:403DC00002235B429C46039CE344A446029B63449846A045B6417642F6190293B218B1E603988A1E41008142B6417642F619AD19039161E71F225242D31A5A46DA4013007E
:403E0000202D29D040225846551BA8400143481E814107200B4318400026002809D00F2200261A401900042ABBD10B0070077602360BDB0803439946012253461A40002384
:403E40006EE502998D42BBD89B4600267BE603989842C5D3110032E70020D7E780265B4636031E433603360B009A8946034B57E5FF030000FFFFFFFEFE070000FF0700001F
:403E8000F0B55F4656464D464446F0B41F035C00DB0F9A46194B0E034D00C90F8046360B6D0D8B4691463F0B640D9D4219D0134B9C421BD00123A54206D018003CBC9046DF
:403EC0009946A246AB46F0BDBE42F6D1C845F4D1D34510D0002DF0D1304303005A1E9341EBE7310001230143E7D1E0E73A430123002AE2D1DEE70023DFE7C046FF070000FA
:403F0000F0B55F46444656464D46F0B41F033C0B2C4F0E034D00A3465C008446360B6D0DC90F9046640DDB0FBD422BD0254FBC422ED0002D0ED1304307008146784278419B
:403F4000002C17D15F463A4314D14B460020002B0AD006E0002C02D15846024301D099421AD00123484218433CBC90469946A246AB46F0BD0028F2D0584258410122404214
:403F80001043F1E737000743D0D002204042EBE75F461743CDD0F8E7A542E2DC05DB5E45DFD808D000205E45DED248424841012340421843D8E7C445D3D80020C445F4D323
:403FC000D2E7C046FF070000F0B55F464D4644465646F0B41C03240BA4462F4C0F034D005E00C90F80463F0B6D0D8B469146760DDB0FA54220D0284CA64222D0002D12D139
:40400000384344424441002E20D0002C0DD05C42634101245B421C4320003CBC90469946A246AB46F0BD002E17D05B4519D05B465C4201231C43EFE7390002240143EBD188
:40404000D9E7614602241143E6D1D7E761460A43DBD100240028DFD0E9E761460A43E4D1E5E7B54203DD01225C421443D4E7B542CDDB6745DBD809D000246745CCD259467C
:404080004C426141012449420C43C5E7C845CED80024C845F3D3BFE7FF070000F0B55F4656464D464446F0B40D0399464E002B0B87B00700924680469B46760DCC0F002E6C
:4040C00069D06D4B9E4235D05B468022DD001204430F13432B439B46C3009846674B00279C460023664401934A4615035000D20F53462D0B400D914600D176E05E4A904291
:404100006CD080225B0F120413435C4AED0094461D4353460022DB00604449463618701C6140029017430F2F00D9AFE05448BF00C759BF465B461F4300D088E000239B4669
:404140009846023308270193CEE74946022A6AD0032A00D109E2012A00D0BBE111400022002300259046CCB200212D030A0D12052D0B1543434A1B0515401D436D00E40767
:404180006D0825434046290007B03CBC90469946A246AB46F0BD034352D05B46002B00D18AE1584600F048FE03000B3B1C2B00DD7BE11D22D31A3A0001005D46DA40083917
:4041C0008D4013008F402B439B46B8462E4B00279C46002360444642019385E752462A432CD100250023022297E752462A4321D0002D00D154E1280000F01EFE03000B3B60
:404200001C2B00DD46E11D21CB1A51460200D9405346083A954093400D431B4A944660444042002279E7012400220C40124B0025904699E70025002301226EE703226CE701
:4042400000239B4698460133042701934CE703230C27019348E700238025984600242D03054B81E75D464346019A6FE75D4643462100019A6AE7C046FF07000001FCFFFF0B
:404280006C740000FFFF0F80F30300004246120C91461A0C9446424617044A461B041B0C5A43604690464A4642431000039262461C003F0C7A437C4342440192220C924628
:4042C000019A5244904506D98246802040028046C24450460390100C049048462404240C1204121905922A0C2D042D0C68432C00824648467C4350438146200C804657435A
:4043000057444744BA4503D9802040028046C144380C3F04B84648442404240C01900498A044404404905846000C814658460404200C8246070048465F434C46434360463D
:4043400060436446834650464443380C8446E4186444A34203D980235B029C46E34448463F04230C3F0C2404E419574668436F4384464D46504655434243380C8146624463
:404380004A445B44944503D9802040028446654403983F04834604983F0C8446E344C345804140428246100484460198674484466744A344BC46A345A4419946D44464424A
:4043C0008742BF41D4458041E144A04699459B417F424042C8440743120CBA18A045A4415F423B0064422343D71843467D19DB0D6D021D435B465A02059B1A43531E9A410F
:404400005B46DB0D1A4343465B021343EA0107D501225C0813402343EA07029E13436D08574AB218002A4BDD580709D00F201840042805D0181D98429B415B42ED180300EA
:40444000E80104D54F4A15408022D200B2184E48824200DDE7E60124DB08680718436D02530580462D0B5B0D0C407DE6802259461203114208D0154206D115432D03984687
:404480002D0B4C46414B6FE65D4615432D032D0B3E4B69E603005546283B9D400023BCE6504600F0C9FC2030A8E60300283B9F400023BB46984689E600F0BEFC203073E641
:4044C0000124A61A382E07DD00220C4000230025904649E6029EA3E71F2E20DC20222C001800921BF040944093400443581E83411C43F540630709D00F232340042B05D064
:4045000023001C1D9C4292415242AD182B021FD5012400220C4001230025904624E61F202C004042821AD440202E1CD04022961BB5402B43581E83410720234318400025A7
:40454000002809D00F2200251A401C00042AD8D1230068076D022D0B0124DB08034398460C40002300E60025E3E780220124120315432D0398462D0B0C40044BF4E5C046FA
:40458000FF030000FFFFFFFEFE070000FF070000F0B557464E464546E0B40E001100F20F9246C500420F180337037400400A4E0F7F0A3043CF4E17435A00640D520DDB0FF9
:4045C000C900B24200D1E5E001267340A61AB446534500D1AFE0002E00DC0DE1002A3AD103000B4300D0E4E06B0709D00F232B40042B05D02B1DAB42AD416D427F191D0057
:404600003B0200D488E0BB4B01349C4200D110E13A00B94B51461A4001235007ED08520264050543120B640D0B400021280012030D0D120B64052D0515436208AF4CDB07DA
:404640002C401443640064081C4321001CBC90469946A246F0BDA74B9C42C5D080231B0418436346382B00DDFDE01F2B00DD30E1624620239B1A02009A40664690460A007D
:404680009940F24046464B1E99413243114363460200DA40691A8D429B410D00BA1A5B42D71A3B0235D57A02530A98464346002B00D1C4E0404600F0BFFB0300083B1F2B0E
:4046C00000DDC5E020222900D21A4746D1409F400A009D403A439C4200DDC0E01C1B631C1F2B00DDE4E0202114002800C91AD8408C408D400443DA40681E854117002543C7
:40470000002471E7424663461A4300D14CE2674645466B0700D069E7012351467807ED08FA080B40054373498C4238D012036405120B640D79E7002E00DC9AE0002A47D01F
:404740006C4A944200D14FE78022120410436246382A00DC08E10143481E81410022C9B24919D219A942BF410D007F42BF183A0200D442E15F4A0134944200D14EE10120DE
:404780005D4A69083A4028400843D507054357089A4629E706000E4300D017E714E72900114300D1F9E1802109030A431203120B3BE701235B429846C4446346002B72D1ED
:4047C000691A8D429B413F1A5B42FF1A0D0068E702000A4300D107E7012252429046C4446246002A00D0E6E06918A942B6413F187642F7190D00BAE7002E00D080E0621C09
:404800005205520D012A00DCF9E06A1A91464D45B6413A1A7642921B9046120200D499E04D1BA9428941C71B49427A1A90469A463CE752460123002513400022F5E62800BE
:4048400000F0FAFA20300300083B1F2B00DC39E72A002838824000259C4200DC3EE7264FE41A1740C0E60143481E81410022C9B210E7002E00D0F1E0621C94465205520DDB
:40488000012A00DCA0E01B4A944500D1C5E06918A94292413F185242D2194908D5070D4357086446A0E6134B9C4200D0D9E69BE611001F3CE1400C00202B00D180E04021DA
:4048C000CB1A9A4015436A1E95410027254300241FE763460200203BDA406346202B71D0402366469B1B98400143481E814111430022CFE6FF070000FFFF7FFFFFFF0F80F2
:40490000002C48D0CA4CA24200D1A2E07442A1468024240427434C46382C00DDDBE01F2C00DD44E14E462024A41B3E00A640A246B0464C462E00E640B44646466446264320
:404940005446A5406C1EA54134002C434D46EF400D1B28E04A4643464D461A4300D0A5E6002300240025DEE61F2A5ADC66462022921B060096409146B04662460E00D64090
:40498000424616434A4691404A1E9141020060463143C240E4E63C002C435AD0F443A146002C52D14D1BA9428941C71B49427F1A14009A4675E69E4A944200D0C7E613E6AB
:4049C00000227FE700208FE7002C00D0C8E03B002B4300D10FE103000B4300D104E66918A9429B413F185B42DF193B0200D41AE1904B0D001F406446F6E59A4689E63A00EA
:404A00002A43002C5CD1002A75D102000A4300D1CAE007000D009A46E6E564460022002581E662460600203AD6406246B046202A00D1B7E040226646921B9040014342469A
:404A4000481E8141114300228AE6794CA24200D061E707000D0014009A46C5E5002C41D13C002C4378D0F443A146002C20D0704CA24271D04C46382C00DDB2E01F2C00DDDC
:404A8000BCE02026341BA2463C005646B4404E46A0462C00F440A446444666463443A4465446A54064466E1EB54125434C46E7406D188D4289413F184942CF19140056E6B2
:404AC000002A2FD102000A4300D184E007000D009A46574C88E53D436F1EBD41ECB200270D1B60E7524CA24236D0744280263604A1463743BEE702000A4300D174E56A1AA4
:404B000090464545B6413A1A7642921B9446120200D4F7E54D1BA9428941C71B49427F1A9A4661E502000A433AD0ED087C072C438025FA082D032A4208D0C7082F4205D10D
:404B400045072C003A009A46C9080C43670FD200E5001743364C47E507000D00140043E53A002A4343D002000A4319D0ED087C072C438025FA082D032A4207D0C6082E42CD
:404B800004D147073C003200C9080C43D700620FE50017439A46264C26E50022002544E5234C21E5002049E700230025BBE54C463E00203CE6404C46B446202C31D04024B4
:404BC0004E46A61BB7403D436C1EA54164462C4300270D1BE7E6802200231203144C0025A1E53D436F1EBD410027EDB260E707000D000F4CF8E407000D00F5E44E463C003F
:404C0000203EF440A0464C46202C0ED040244E46A41BA7403D436F1EBD4144460027254346E70027CFE70D0073E50027F2E7C046FF070000FFFF7FFF70B50E4E0C031D03D7
:404C400049005B00240B490D2D0B5B0DB14204D0084900208B4208D070BD04430120002CFAD1044900208B42F6D115432800451EA841F1E7FF0700004200120E511C430243
:404C8000C9B270B55D0AC40F012915DDE02189008C466D071B0B6244002128000D0D2D052B431C4D52052B40520813435B00E4075B082343190070BD002A15D1002D1FD003
:404CC000280000F0B9F80A281DDC0B232A001B1ADA4013000200153295400F4A1B03121A52051B0B520DD7E7002D06D080221B0B120313436D07094ACEE7084A0023CBE7D2
:404D000000220023C8E703000B3B9D402B000025E3E7C046FFFF0F8089030000FF0700004B0070B55E0D0C03751C640A420F6D052243C90FC4006D0D012D2ADD3B4BF3182D
:404D4000FE2B1ADC002B42DD8001451EA841D2001043620F0243500704D00F201040042800D004328020C004104021D00133FF2B03D09201520ADBB201E0FF23002252027B
:404D8000520ADB0513435B00C9075B080B43180070BD002E07D01443EFD08020D20080040243FF23D7E722430023002A03D00522D208FF2B03D05202520ADBB2DFE7002A5A
:404DC00032D08020C00302435202520AD7E71800173014DB8020000402431E20C01A1F280FDC2500124BF3189D406E1EB5419A402B0013432200C2401A430023ABE700237A
:404E0000D5E702256D42EB1A1500DD40202809D0084BF3189A401443621E9441220000232A4398E70022F6E70022A8E780FCFFFF82FCFFFFA2FCFFFF1C2101231B049842D7
:404E400001D3000C10391B0A984201D3000A08391B09984201D30009043902A2105C40187047C04604030202010101010000000000000000014B18687047C04648010020AD
:404E80000E4B70B500251E000D4CE41AA410A54204D0AB00F35898470135F8E702F0B6FB084B00251E00084CE41AA410A54204D0AB00F35898470135F8E770BD18760000E2
:404EC00018760000187600002076000003008218934202D019700133FAE77047F0B58BB014001D1E129906DA802424061B191D0014002D2300E000230B702023149E032292
:404F00009E43462E07D03300453B59424B411099013ACB18109309AB049308AB0393139B00920293109B220001932B0000F0FCFC0700472E02D1119BDB072DD5109BFB1887
:404F40000793462E14D13B78302B0CD10022002320002900FDF7A6FA002804D10123109A9B1A139A1360139B079A1B68D31807930022002320002900FDF794FA30220028B0
:404F800002D0079B099307E0099B0799994203D9591C09911A70F7E73800099B159ADB1B13600BB0F0BDF7B52B2307000C000270861C002901DA2D234C427B70092C1CDD10
:404FC0006B46DD1D20000A21FDF756FA013D3031297020000A21FDF769F904000928F1DC013D30342C706B4607333000AB4209D92B78013533700136F5E73023E4183370F3
:40500000B01C7470C01BFEBDF0B595B00C000A920B931A9D099001F04DFA036818000D9300F0F4FB0023129323680E900C930C99277E2B680722C90501D59B1800E0073369
:4050400093431A0008322A601A685B68A264E3640122E56CA66C6B005B080F935242C04B30000F99FFF7E8FD002819D10122BC4B524230000F99FDF725FA002810D10022BC
:40508000002330002900FDF713FA002803D023002D2243331A70B34D472F0ED8B24D0CE032002B0030002900FFF7C6FD002800D19AE1AE4D472F00D8AD4D03230C9A236149
:4050C00001339A432260002642E0672F00D193E1472F00D190E10C9A0021134312AA059211AA0392232223600691019308A9636852180292009332002B0004970998FFF7F3
:40510000EDFE20233A0005009A43472A00D18EE11199652F00D996E1200001393A0050301191FFF740FF129A060083182361012A00DD85E12268D20700D581E1232308AA2A
:405140009B181B78002B03D023002D2243331A700B9B13AA009321000A9B099800F0A4F9431C02D1012040429BE12268530501D4236964E0652F00D8CCE0A06CE16C002224
:405180000023FDF78FF900282CD00123794A0A9909980B9DA847431CE4D0119B129A934208DB2368DB0705D4236800259B0700D50FE113E10B9D0E9B0D9A0A990998A847CB
:4051C0000025431CCED0129B013B9D42ECDA220001231A320A9909980B9EB047431CC1D00135F0E7119B002B2BDC0123614A0A9909980B9EB047431CB4D0119B002B05D16B
:40520000129B002B02D12368DB07CDD50B9E0E9B0D9A0A990998B0470026431CA2D0119B5B429E420ADA220001231A320A9909980B9FB847431C95D00136F0E7129B2A0054
:40524000ACE0A36D129E9E4200DD1E00002E05DC00230C93F343DB170F9315E033002A000A9909980B9FB847431CF1D17AE7220001231A320A9909980B9FB847431C00D1FC
:4052800070E70C9B01330C930F9BA26D0C993340D31A9942EBDBAE18119B129A93420DDB2368DB070AD4129B119AED18AD1B9B1A9D4200DD1D00002D09DC11E00E9B0D9A92
:4052C0000A9909980B9FB847431CECD14AE72B0032000A9909980B9EB047431C00D141E7EF43FB1700260C930AE0220001231A320A9909980B9FB847431C00D132E70136E9
:40530000119A129B0C999B1A2A000A409B1A9E42EBDB49E7129B012B02DC01231A4245D001232A000A9909980B9FB847431C00D118E70E9B0D9A0A9909980B9FB847431C6A
:4053400000D10FE7A06CE16C00220023FDF7AAF8002801D000251AE0129B6A1C013B26E0FFFFEF7FB2740000AE740000BA740000B6740000BE740000220001231A320A9932
:4053800009980B9FB847431C00D1EBE60135129B013B9D42F0DB2200330050320A9909980B9DA847431C00D0FEE6DBE62A000A9909980B9DA847431CEDD1D3E62200012332
:4053C00019320A9909980B9EB047431C00D1C9E60135E368139A9B1A9D42EFDB139BE06898425EDA18005CE080236268DB00511C00D06AE6073202E0002A02D101226260E5
:4054000069E60C9908A80B430021069112A9059111A90391232109182360019300922B000497029132000998FFF758FD0500119BDA1C02DB626893421CDD023FFFB267E643
:40544000013323617AE6662F15D16368002909DD2161002B02D12268D2071ED50133591821611AE0002B03D101222168114213D09A1C11E06727119B129A934206DB22681A
:405480002361D20709D50133236106E00121002B01DC4918C91A8A182261119B0026A3654CE615B0F0BDC046F7B5170001938A680B6900900C00934200DA130022003B6024
:4054C00043321278002A01D001333B6023689B0602D53B6802333B60062523681D401ED0230043331B785A1E9341226892061CD53020E1184331087021005A1C453109781E
:40550000A2184332023311700FE022000123193201990098089EB047431C0ED00135E3683A689B1A9D42F0DBDAE72200019943320098089DA847431C02D10120404220E085
:4055400006232068E1683A6803400025042B03D18D1AEB43DB171D40A3682269934201DD9B1AED180027BD420AD0220001231A3201990098089EB047431CDED00137F2E77E
:405580000020FEBDF0B58BB006920A0043320793059004920A7E0C00109B6E2A00D1ABE011D8632A22D009D8002A00D1B5E0582A00D0C5E045310A70814A4FE0642A1DD0EC
:4055C000692A1BD0BCE0732A00D1AAE009D86F2A29D0702A00D0B3E0202209680A43226037E0752A1FD0782A33D0A9E00E001A684236111D196013683370A4E021681A6878
:40560000080606D4490604D5111D19600023D55E02E0111D19601568002D3BDA2D23049A6D42137036E021681A68080606D4490604D51568111D1960ADB202E0111D1960B8
:4056400015685F4B227E039308276F2A1DD00A271BE022007821453211705A4A19680392081D226818600D68100602D4500600D5ADB2D30702D520231A4322601027002D36
:4056800003D1202322689A4322602300002243331A7002E00A274A4B03936368A360002B09DB0422216891432160002D05D1049E002B11D07BE0002D79D0049E2800390001
:4056C000FCF7F0FD039B013E5B5C280033703900FCF762FD051EF1D1082F09D12368DB0706D563682269934202DC3023013E3370049B9B1B23612BE009681A68080607D4A4
:40570000490605D5111D19601368A28A1A8004E0111D1960136862691A600023049E236116E01A68111D1960166800216268300000F0CEFE002801D0801B6060636803E04E
:40574000260042363270012323610023049A1370079B09AA00932100069B0598FFF7A4FE431C02D10120404227E02369320006990598079DA847431CF4D0236800259B0740
:405780000FD4099BE068984217DA180015E022000123193206990598079EB047431CE1D00135E368099A9B1A9D42F0DBE9E72600039B42361B7833708EE70BB0F0BDC04621
:4057C000C0740000D17400000EB410B59DB002A9029008610B48822488604861012040421FABC881084804CBA400006801938C8101F088FA0023029A13701DB010BC08BC98
:4058000003B01847FFFFFF7F480100200023C25C0133002AFBD1581E7047F0B503690C6989B00700059100269C4279DC0B00013C1433A50003935B19049303001433029370
:405840005D19049B28681B68591C0193FCF7A4FC0190B04233D0039B02989C460696634604CB9C46019B91B25943120C5A4389190B0CD3180793069A1E0C038889B29B1817
:4058800002685B1A110C6A46928B8A1A1914521811149BB21204134308C0049B06916345DDD22B68002B0AD1029B043DAB4201D33C6104E02B68002BFAD1013CF4E70599B9
:4058C000380001F029F8002829DB0020019B02990133039A019340CA0B881818B3B2C31A0868360C000C801B1D14451928149BB22D042B4308C1049B9342ECD2029AA3001D
:40590000D3181A68002A0AD1029A043B9A4201D33C6104E01A68002AFAD1013CF4E7019E300009B0F0BD0000F0B516001F00446A9DB00490259D06960797002C08D110208B
:4059400000F0BCFD049B5862446084600460C460049B5B6A196800290BD05A68012393404A608B60049800F0FFFD0022049B5B6A1A60079B002B05DA01232B607B005B081D
:40598000079301E000232B60079CC84B220019931A409A4219D1C64B249A1360069AC54B002A02D1240300D1C34B269A1800002A01D100F07DFDD978DA1C002900D0053270
:4059C000269918000A6000F073FD069E079F0022002330003900FCF765FD051E0ED00123249A1360B54B269A1800002A01D100F05FFDB34A26990A6000F05AFD1AAB01937D
:405A00001BAB009332003B00049801F00BF8630005905B0D09D03A03AA4C120B1443AA4A300021009E1817951AE01A9B1B9A9E18A64BF318202B08DDA54A0698B218D040DC
:405A40004022D31A9C40204303E020220698D31A984001F031FB01239E4C013E0919179300229D4BFEF794FD9C4A9D4BFEF716FB9C4A9D4BFDF7C2FB040030000D0001F0C5
:405A8000D9FA9A4A9A4BFEF709FB02000B0020002900FDF7B3FB04000D0001F095FA00220390002320002900FCF702FD00280DD0039801F0BFFA02000B0020002900FCF722
:405AC000F1FC43424341039AD31A039301231693039B162B11D88749DB00C91808684968069A079BFCF7F8FC002805D0039B013B03930023169300E016901A9B9E1B0023D5
:405B00000B93013E0C9604D50C9B5B420B9300230C93039B002B08DB039A0C9B944663440C9300231192089307E00B9B039A9B1A0B935342089300231193229B0125092B6D
:405B400025D8052B02DD0025043B2293229B981E032824D801F02EFA060E0204012302E0012308E000231093239B002B20DD1F000A9321E00023239A1093039B9F187B1C49
:405B80000A930123FA18002A16DD130014E0012700237F42229310950A97123305E0012701237F4210930A9711330022239203E001273B000A972397049A546A0022626070
:405BC000043211001431994204D86168520001316160F6E76168049800F08EFC049B20605B6A1B680D930A9B0E2B00D981E1002D00D17EE1069B079C14931594039B002BBE
:405C000031DD0F223B491340DB00CB185C681B680E930F94039B02241D11EB060AD514981599354B15401A6A5B6AFDF713FE069007910134304E002D0ED001231D4208D07F
:405C40000E980F99E41832687368FEF727FA0E900F916D100836EEE70E9A0F9B06980799FDF7F8FD4CE0039B02245D42002D49D0149815990F231F4A2B40DB00D3181A688B
:405C80005B68FEF70BFA0023069007911A4E2D11002D33D00122154205D0A41832687368FEF7FCF901236D100836F1E70000F07F0F270000EB740000E2740000BE74000053
:405CC000BF7400000000F03F01FCFFFF3204000012040000000010FE0000F83F61436F63A787D23FB3C8608B288AC63FFB799F501344D33FF8740000D0750000002B01D06B
:405D000006900791169B002B1DD0069D079E0022C74B28003100FCF7CBFB002813D00A9B002B10D0002F00DCDFE0039B3100013B0E930022BF4B2800FEF7B0F901340690F0
:405D400007913E0002E0039B0A9E0E93200001F071F9069A079BFEF7A1F90022B64BFDF74DFAB64A12901391129C139D9446139B634418931D00002E1CD1069807990022C4
:405D8000AF4BFEF705FC2200189B06900791FCF7A3FB002800D054E2AA481399844661440B00069807992200FCF782FB002800D03DE29AE0109A731EA349DB00002A49D073
:405DC000CB181A685B680020A049FDF743FD2B002200FEF7DDFB129013910D9D0698079901F0F2F8040001F025F902000B0006980799FEF7CDFB01356B1E30341C70129AA5
:405E0000139B06900791FCF753FB002800D02EE3069A079B00208649FEF7BAFB129A139BFCF746FB002800D0C7E00D9BEB1AB3425BDA1298139900227E4BFEF72FF90022DD
:405E400012901391069807997A4BFEF727F906900791C3E7C9182200086849682B00FEF71DF90D9C12901391A5190698079901F0ABF8060001F0DEF802000B0006980799FB
:405E8000FEF786FB303626700134069007910022A54222D16D4B12981399FDF7AFF902000B0006980799FCF717FB002800D084E0129A139B00206549FEF76AFB02000B002C
:405EC00006980799FCF7F4FA00280ED06B1E1A78302A00D0CBE21D00F8E706980799554BFEF7DCF806900791BFE7149B159C069307941B9B002B00DA81E0039A0E2A00DDB2
:405F00007DE0D300504AD3185C681B6808930994239B002B15DA0A9B002B12DC00D088E1089809990022464BFEF7B8F8069A079BFCF7DCFA0A9B08931E00002800D07BE107
:405F400082E10D9D069E079F089A099B30003900FDF780FC01F038F8040001F06BF8089A099BFEF79BF802000B0030003900FEF70FFB220001356B1E30321A700D9B0A9AD6
:405F8000EB1A9A422ED102000B00FDF737F906000F0002000B0008980999FCF789FA00280FD10898099932003B00FCF77BFA002800D15EE2E30704D45BE20E9B039300E080
:405FC0001D006B1E1A78392A08D10D9A9A42F7D1039A0D990132039230220A701A7801321A7046E20022134BFEF758F80022002306000F00FCF756FA0028A5D039E2109AD0
:40600000002A44D0229A012A0BDC179A002A02D00F4A9B1802E036231A9A9B1A089D0B9C29E00A9B5D1E089BAB4213DB5D1B18E00000F03F0000244000001C400000C0FCE9
:40604000000014400000C07CF87400000000E03F33040000089B0895EA1A0025119B9B1811930A9B002B04DA0B9B0A9A9C1A002301E00B9C0A9B0B9A0121D2180B920C9A70
:406080000498D3180C9300F00FFB060002E0089D0B9C109E002C0ED00C9B002B0BDD0C9A2300944200DD13000B9AE41AD21A0B920C9AD31A0C93089B002B20DD109B002B8C
:4060C00017D0002D11D031002A00049800F07EFB059A01000600049800F0EFFA05990E90049800F041FA0E9B0593089B5A1B06D000E0089A0599049800F068FB0590012138
:40610000049800F0D1FA119B0890002B00D1C0E11A000100049800F059FB229B0890012B17DC0025069BAB420ED1079B1B03AB420AD1199B079A134206D00B9B013501330E
:406140000B930C9B01330C93119B0120002B0DD000E00025089B089A1B690E9303339B00D318586800F056FA2023181A0C9BC0181F23184009D001331B1A042B02DD1C23EA
:40618000181A03E0042B08D018001C300B9B24181B180B930C9B1B180C930B9B002B05DD1A000599049800F065FB05900C9B002B05DD1A000899049800F05CFB0890169BAC
:4061C000002B1DD00899059800F0A6FB002817DA039B0A22013B039305990023049800F0DCF9109B0590002B00D159E1310000230A22049800F0D1F90600002F37DC33E03A
:406200000A9B0A9F002B2ADC229B022B27DD002F12D108993B000522049800F0BEF908900100059800F078FB00280DDC04E0089602E000231E000893239B0D9DDB43039393
:406240000AE00E9B089603930D9B0D9A5D1C31231370039B013303930A960026F3E0109B002B04D10D9DB5E0229B022BCFDC002C05DD31002200049800F0FCFA06000A96AF
:40628000002D12D07168049800F036F93100040033690C319A1C92000C3000F024F901222100049800F0E6FA0A900D9B7D1E0B935B190E9308990598FFF7AFFA31001090AE
:4062C0000400059800F028FB0A9A05000899049800F03DFB01230C93C36830340700002B04D10100059800F017FB0C903900049800F03AF90C9B229A134308D1069A0133E9
:40630000134204D1392C2AD0002D1CDC1DE0002D06DB229B1D431BD10123069A134217D10C9B002B11DD05990122049800F0A2FA0899059000F0F0FA002802DC05D1E3071B
:4063400003D5392C0BD0109C31340B9B5D1C0FE00B9B5F1C0C9B002B0CDD392C05D10B9B0B9A5D1C3923137057E03D000B9B01341C7068E00B9B0E9A3D001C7093423CD011
:4063800000230A220599049800F007F90A9B05909E4208D1310000230A22049800F0FDF806000A900DE0310000230A22049800F0F4F8002306000A220A99049800F0EDF882
:4063C0000A900B9776E700230A220599049800F0E4F8059008990598FFF71FFA0D9B3030287001350400EB1ABB42ECDB3D1E00DC01250A9600260D9B5D190599012204988C
:4064000000F038FA0899059000F086FA002804DC13D1E30701D410E01D006B1E1A78392A08D10D9A9A42F7D1039B013303933123137008E001321A7005E06B1E1A78302AFC
:4064400001D11D00F9E70899049800F08DF80A9B002B0ED0002E05D09E4203D03100049800F082F80A99049800F07EF801E00E9B03930498059900F077F800232B70039B46
:40648000249A01331360269B0D98002B10D01D600EE0229B012B00DC43E6119D012065E6002F00DDDEE6229B022B00DCDAE6AEE61DB0F0BD004870474C01002010B5034BB0
:4064C0000100186800F05CFB10BDC04648010020C9B28218904204D003788B4202D00130F8E700207047002310B59A4203D0CC5CC4540133F9E710BD70B5466A04000D003E
:40650000002E07D11020FFF7D9FF6062466086600660C660666AF368002B09D0636AAA00DB689B18186800280ED002681A6017E021220421200000F0C9FA636AF060DB68E5
:40654000002BEBD100200EE001210E00AE40721D9200200000F0BAFA0028F3D04560866000230361C36070BD70B5456A06000C00002D07D11020FFF7A1FF706245608560C9
:406580000560C560002C07D0726A6368D2689B00D3181A6822601C6070BDF7B5070008000C000D691E00002101921430019A0388013153439B190668360C56431A0C9446FC
:4065C000B4446246160C120494469BB2634408C08D42EBDC002E1BD0A3689D4212DB63683800591CFFF788FF2100236901909A1C92000C310C30FFF776FF21003800FFF7F9
:40660000B3FF019C2B1D9B00E31801355E6025612000FEBD00220300010C914201D103041032190E01D108321B02190F01D104321B01990F01D102329B001000002B03DBBA
:4066400020205B0000D5501C70470722036810B501001A400CD001240020234223D10222134203D0E34020000B601CE09B0818E098B2002801D110221B0CD8B2002801D1A7
:4066800008321B0A180701D104321B09980701D102329B08D80704D45B082020002B02D0013210000B6010BD10B50C000121FFF723FF01234461036110BDF0B50B691400E4
:4066C000126989B00D00934201DA25000C002F692669AA68BB1969680193934200DD0131FFF70AFF0200BB1914329B00D3189C46002113000290634501D202C3FBE71435EE
:40670000BF00EB191434B6000593A31903950793079B9C4251D2208800281ED015000026039F08CF069504936B461B8A434319002B88CB1804999B19090C41432E68360C7E
:4067400089191E0C89190E0C9BB209040B4308C5059BBB42E5D8069B5E6023681D0C1FD0002110001368039F04913E8801686E43090C7118049E9BB289190E0433430360E3
:4067800008CF86881B0C6B43090C9B195B18190C0491059906900430B942E6D806994B6004340432B4E704235B429C4463461B68002B05D1019B013B0193019B002BF2DCE3
:4067C000029B019A18001A6109B0F0BD0323F7B5134005000E001400002B08D02349013B9A00525800233100FFF7D7FE0600A310019338D06C6A002C07D11020FFF75EFE5D
:406800006862446084600460C4606F6ABC68002C10D117492800FFF747FF0023B8600400036007E0019B5B1001931CD02068002810D004000122019B1342F3D031002200E2
:406840002800FFF73AFF070031002800FFF78CFE3E00E7E7220021002800FFF72EFF002320600360E5E73000FEBDC046C075000071020000F0B50C0017002369551185B0ED
:40688000EB180193013300934968A3680290009A934202DA01315B00F9E70298FFF72CFE00230200060019001432AB4203DA980011500133F9E7EB43DB171D402300AD000C
:4068C00055192269143392009A1894461F22174014D00132D21B0392002219682800B9400A4304C504CB0399CA409C45F5D84260002A07D0019B0233009303E004CB04C58A
:406900009C45FBD8009B0298013B33612100FFF72BFE300005B0F0BD03690A6910B59B1A0400181E12D1930014341431E218C918043A043913680868834204D083429B41BB
:406940000120184302E09442F2D3002010BDF0B50C0085B00700110020001500FFF7DCFF061E07D101003800FFF7C6FD01234661036155E000230193984204DA23002C001D
:406980001D000123019361683800FFF7B5FD019B26692F00C3601434B300E318020002932B69002514379B00FB180393143208CC69469C4608CF0432009363468B808B88F5
:4069C0005D19009B9BB2EB1A65460193009B2D0C190C019B691A1D14131F9C466B4649199B880D1409040B4361460B60039BBB42DDD8029913008C420BD202CC8BB25B19AC
:406A00001D14090C49190D149BB209040B4308C2EFE7043B1A68002A01D1013EF9E7066105B0F0BDF7B51D000121089F1400FFF763FD2B036D0006001B0B6D0D02D08022EF
:406A4000520313430193002C18D068460094FFF7FCFD009C002809D0019B20211A00091A8A40C34022437261019300E07461019CB461631E9C410134346107E001A8FFF72D
:406A8000E4FD0124019B346173612030002D06D00B4BED1835232D183D60181A0BE0094BC018094B3860E3189B00F3185869FFF7B1FD6401201A099B18603000FEBDC046FC
:406AC000CDFBFFFFCEFBFFFFFFFFFF3F4A4370B51100140000F054F8051E03D022000021FEF7F4F9280070BD70B50500002944D00C1F2368002B00DAE418280000F027FAF3
:406B00001E4A13681100002B02D16360146031E0A3420DD92268A018834203D118685B688218226063600C6024E0A24203D813005A68002AF9D11E689819A0420BD12168DD
:406B4000711858181960824214D110685268411819605A600EE0A04202D90C232B6009E021686018824203D1106852684118216062605C60280000F0EBF970BDE40100209D
:406B8000032370B5CD1C9D43083506000C2D01D20C2501E0002D01DBA94202D90C23336048E0300000F0D3F9234B1C681A002100002913D00B685B1B0DD40B2B02D90B603C
:406BC000CC181EE08C4202D1636813601AE04B6863600C0016E00C004968E9E7174C2368002B03D1300000F08BF920602900300000F086F9431C18D00323C41C9C43A042EE
:406C00000DD12560300000F0A3F9200007220B30231D9043C31A0ED05A42E2500BE0211A300000F06DF9431CEBD10C233000336000F08EF9002070BDE4010020E001002092
:406C4000F0B58E6885B007000C00039201939E4243D890238A89DB001A423ED003250969236801985B1A029363695D43EB0F5D19029B6D1001331B18AB4200D91D005305A2
:406C800010D529003800FFF77BFF061E14D0029A2169FFF728FCA289194B134080221343A38112E02A00380000F053F9061E0CD121693800FFF718FF0C23402201203B602B
:406CC000A38940421343A38117E0029B2661F61826606561019EED1AA560019BB34200D21E0032000399206800F01CF90020A3689B1BA36023689E19266005B0F0BDC0465C
:406D00007FFBFFFFF0B59FB0029005938B890F0016001B0610D50B69002B0DD14021FFF72FFF38603861002804D10C23029A01381360D8E040237B61002306AD6B612033EB
:406D40006B761033AB7634002378002B03D1A31B049312D003E0252BF9D00134F4E7A31B320039000298FFF76BFF431C00D1B4E06A69049B944663446B612378002B00D180
:406D8000ABE00122002352426A6002A95432521801342B60EB60AB601370AB65534E217805223000FFF794FB002807D00123801B83402A68013413432B60EFE72B68DA06D8
:406DC00004D55322202102A8121811701A0704D553222B2102A81218117022782A2A03D0099B00200A210EE0059A111D12680591002A01DB099204E05242EA600222134347
:406E00002B6001340BE02278303A092A04D84B4301349B180120F6E7002800D0099323782E2B1ED163782A2B0AD1059B02341A1D1B680592002B01DA01235B42079310E026
:406E400000230A201A0001346B6021783039092904D84243013452180123F6E7002B00D00792234E217803223000FFF731FB002806D04023801B83402A68013413432B60FA
:406E8000217806221B48661C2976FFF721FB002812D0194B002B06D10722059B073393430833059314E005AB00933A00134B29000298FEF7A9F807E005AB00933A000F4B79
:406EC00029000298FEF75EFB0390039B013304D06B69039A9B186B6135E7BB890B985B0601D5012040421FB0F0BDC046F8750000FE7500000276000009500000416C00009B
:406F0000002370B5064C050008002360F9F7E8FE431C03D12368002B00D02B6070BDC0463C05002010B5884202D98B18984201D3002305E09B1A013A08D3995C8154FAE740
:406F4000934203D0CC5CC4540133F9E710BD70477047F8B506000C001500002904D11100FFF70EFE040018E0002A03D1FFF7BCFD2C0012E000F013F885420ED9290030002C
:406F8000FFF7FEFD071E07D021002A00FFF7ABFA21003000FFF7A8FD3C002000F8BD0B1F1A68101F002A04DA891804390B68D0180438704702B4714649084900095C49003D
:406FC0008E4402BC7047C0460B0330B5134D1A0B4B005B0DC90F0024AB4211DD104CA34210DC8024640322430E4CE41A1F2C0CDD0D48C31ADA4013005C42002900D11C0006
:40700000200030BD094BCC18FAE7E040084CA44663449A4013000343EEE7C046FE0300001D0400003304000013040000FFFFFF7FEDFBFFFF70B5002830D0C317C4185C40A6
:40704000C50F2000FDF7F8FE174B184A1B1AD21A1F2A18DD164AD21A9440002224035B05240B5B0D0021100024030A0D1205240B1443104A1B0514401C436400ED076408B2
:407080002C43210070BD210091400A000B21081AC4405B052403240B5B0DE3E70025002300240022DEE7C0461E0400003304000013040000FFFF0F8070B5051E28D0FDF753
:4070C000BBFE154B154A1B1AD21A1F2A16DD2C00134A0025D21A94405A052403240B520D002124030B0D240B1B0523430D4C1205234013435B002800590870BD0B212C0092
:40710000081AC440954024035A05240B520DE7E700220024E4E7C0461E0400003304000013040000FFFF0F80000000000000000054657374204E756D6265723A2025642032
:407140000A0D000041583A25642C2041593A25642C20415A3A2564207C7C2047583A25642C2047593A25642C20475A3A25642C09000000000A0A546573742066696E69732E
:407180006865642C206F66667365742076616C756573206172652073686F776E2062656C6F770A0A0D00000041586F66663A25642C2041596F66663A25642C20415A6F66E3
:4071C000663A2564207C7C2047586F66663A25642C2047596F66663A25642C20475A6F66663A25642C0900004D50553630353020636F6E6E656374696F6E20737563636547
:40720000737366756C0A0D004D50553630353020636F6E6E656374696F6E206661696C65640A0A0D000000005261772076616C7565732066726F6D206779726F73636F7013
